:03000000020306F2
:0C030600787FE4F6D8FD75810B02034DF2
:1000060000000000000000000000000000000000EA
:100016000000000000000000FE3F0020002000203D
:100026000020002000200020000000000000F80F43
:10003600041002200220022002200410F80F000003
:1000460000000000FE07000800100020002000103D
:100056000008FE07000000000000FE3F822082200C
:100066008220822082208220822000000000000060
:10007600000000000000000000000000000000007A
:10008600000000000000000000000000000000006A
:10009600000000000000000000000000000000005A
:1000A600000000000000000000000000000000004A
:1000B6007800FC00FE01FE03FE07FE0FFE1FFC3F5C
:1000C600F87FFC3FFE1FFE0FFE07FE03FE01FC004D
:1000D60078000000000000000000000000000000A2
:1000E600000000000000000000000000000000000A
:1000F60000000000000000000000000000000000FA
:1001060000000000000000000000000000000000E9
:10011600000000000000C0014001C0010000000016
:10012600F00F0810042000000000F03F0800040053
:10013600040004000800F03F00000000002000203A
:1001460000200020002000000000F03F080004000E
:10015600040004000800F03F00000000042008101E
:10016600F00F00000000C0014001C00100000000C7
:100176000000000000000000000000000000000079
:1001860040004200CC3F04500029FC11564D5583D7
:10019600FC7F500090411080FF7F1000100000008F
:1001A60040004200CC3F04500029FC11564D5583B7
:1001B600FC7F500090411080FF7F1000100000006F
:1001C60080004000F07F2C004310200C98030F2184
:1001D6000A40E83F0800880028031C1C08080000A5
:1001E600000000000000F05F0000000000000000BA
:1001F60000000000000000000000000000000000F9
:10020600002040204010480C4803C8400980FA7F6F
:100216004600800040032004300800100010000053
:1002260044004480444044204418DF0744025402FA
:10023600644244825F42443E44004400440000005D
:1002460020002080204020202010200CA0037F00CA
:10025600A001200620082030206020C02040000099
:100266000001020102017A3D2A152A152A152A15CE
:100276007A3D024102817E7F020182010001000077
:10028600202124112C4D3581E67F34052C5924215B
:100296000018FC0724002400E2FF220022000000D0
:1002A6004004200410040C04E30722042204220460
:1002B600FEFF220422042204220402040004000099
:1002C60070000000FFFF0800B08088408830880E6C
:1002D600FF01880688088830F86080C080400000EA
:1002E600000000204018FC0C4407441244204640FD
:1002F600FA3F420043004302420C4038001000001F
:06053E00010A00010B00A0
:0B051500F583E493F4F5A07F787E00EE
:10052000E4FDFCD3ED9FEC9E50070DBD00010C8057
:01053000F2D8
:0105310022A7
:03000300020403F1
:10040300C0E0C0F0C083C082C0D075D000C000C0BF
:1004130001C002C003C004C005C006C0076308FFD3
:10042300E5087023050BE50A14600A14600C1460D8
:100433000E2403800F120465800D12049C800812A1
:1004430004C88003120392D007D006D005D004D08D
:1004530003D002D001D000D0D0D082D083D0F0D04E
:02046300E03285
:10039200E50BD3940A40050509E4F50BE509D3946E
:1003A200024003E4F5097F507E14120520E4FB7538
:1003B200F002EBA4F58285F08375F080E509120561
:1003C20032E5822486F582E5833401F583E493F4F1
:1003D200F58075F002EBA4F58285F08375F080E577
:1003E20009120532E5822487F582E5833401F5831B
:1003F200E493F4F5A07F647E001205200BBB40AFAE
:0104020022D7
:100465007FA07E0F120520E4FBEB25E02406F58234
:10047500E43400F583E493F4F580EB25E02407F5F7
:1004850082E43400F583E493F4F5A07F8C7E0012BA
:0604950005200BBB40D363
:01049B00223E
:10049C007FA07E0F120520E4FBEB25E02486F5827D
:1004AC00E43400F583E493F4F580EB25E02487F540
:0B04BC0082E434001205150BBB40DE8B
:0104C7002212
:1004C8007FA07E0F120520E4FBEB25E02406F582D1
:1004D800E43401F583E493F4F580EB25E02407F593
:0B04E80082E434011205150BBB40DE5E
:0104F30022E6
:1004F400D288D2A8D2AFE4F50820B7097F107E27AE
:10050400120520050AE50AD3940340EDE4F50A80B8
:01051400E8FE
:100312000204F4E493A3F8E493A34003F68001F209
:1003220008DFF48029E493A3F85407240CC8C333EC
:10033200C4540F4420C8834004F456800146F6DFBB
:10034200E4800B010204081020408090053EE47E08
:10035200019360BCA3FF543F30E509541FFEE493B0
:10036200A360010ECF54C025E060A840B8E493A377
:10037200FAE493A3F8E493A3C8C582C8CAC583CAA2
:10038200F0A3C8C582C8CAC583CADFE9DEE780BE5A
:0105440000B6
:0C053200A42582F582E5F03583F58322D4
:00000001FF
