:03000000020306F2
:0C030600787FE4F6D8FD75810B02034DF2
:1000060000000000000000000000000000000000EA
:100016000000000000000000FE3F0020002000203D
:100026000020002000200020000000000000F80F43
:10003600041002200220022002200410F80F000003
:1000460000000000FE07000800100020002000103D
:100056000008FE07000000000000FE3F822082200C
:100066008220822082208220822000000000000060
:10007600000000000000000000000000000000007A
:10008600000000000000000000000000000000006A
:10009600000000000000000000000000000000005A
:1000A600000000000000000000000000000000004A
:1000B6007800FC00FE01FE03FE07FE0FFE1FFC3F5C
:1000C600F87FFC3FFE1FFE0FFE07FE03FE01FC004D
:1000D60078000000000000000000000000000000A2
:1000E600000000000000000000000000000000000A
:1000F60000000000000000000000000000000000FA
:1001060000000000000000000000000000000000E9
:10011600000000000000C0014001C0010000000016
:10012600F00F0810042000000000F03F0800040053
:10013600040004000800F03F00000000002000203A
:1001460000200020002000000000F03F080004000E
:10015600040004000800F03F00000000042008101E
:10016600F00F00000000C0014001C00100000000C7
:100176000000000000000000000000000000000079
:100186000001804060401E41104110411041104165
:10019600FF7F12411041104198411061004000005C
:1001A600000000000000FE3F4210421042104210C4
:1001B600421042104210FE3F000000000000000006
:1001C60070000000FFFF0800B08088408830880E6D
:1001D600FF01880688088830F86080C080400000EB
:1001E600000000204018FC0C4407441244204640FE
:1001F600FA3F420043004302420C40380010000020
:1002060000000000000000000000000000000000E8
:1002160000000000000000000000000000000000D8
:100226001020083808260821C820382008180000A1
:100236000820F83F082000200020002000300000A1
:1002460008201830682C80038003682C183008209A
:100256000000000000000000000000000000000098
:100266000000000000000000000000000000000088
:100276000000000000000000000000000000000078
:100286000000000000000000000000000000000068
:100296000000000000000000000000000000000058
:1002A600000010201020F83F002000200000000071
:1002B600000030180820882088204811300E0000E1
:1002C600000010201020F83F002000200000000051
:1002D60000000007C00420241024F83F002400007A
:1002E6000000000000000000000000000000000008
:1002F60000000000000000000000000000000000F8
:06054300010A00010B009B
:0B051A00F583E493F4F5A07F787E00E9
:10052500E4FDFCD3ED9FEC9E50070DBD00010C8052
:01053500F2D3
:0105360022A2
:03000300020403F1
:10040300C0E0C0F0C083C082C0D075D000C000C0BF
:1004130001C002C003C004C005C006C0076308FFD3
:10042300E5087023050BE50A14600A14600C1460D8
:100433000E2403800F120465800D12049C800812A1
:1004430004C88003120392D007D006D005D004D08D
:1004530003D002D001D000D0D0D082D083D0F0D04E
:02046300E03285
:10039200E50BD3940A40050509E4F50BE509D3946E
:1003A200024003E4F5097F507E14120525E4FB7533
:1003B200F002EBA4F58285F08375F080E509120561
:1003C20037E5822486F582E5833401F583E493F4EC
:1003D200F58075F002EBA4F58285F08375F080E577
:1003E20009120537E5822487F582E5833401F58316
:1003F200E493F4F5A07F647E001205250BBB40AFA9
:0104020022D7
:100465007FA07E0F120525E4FBEB25E02406F5822F
:10047500E43400F583E493F4F580EB25E02407F5F7
:1004850082E43400F583E493F4F5A07F8C7E0012BA
:0604950005250BBB40D35E
:01049B00223E
:10049C007FA07E0F120525E4FBEB25E02486F58278
:1004AC00E43400F583E493F4F580EB25E02487F540
:0B04BC0082E4340012051A0BBB40DE86
:0104C7002212
:1004C8007FA07E0F120525E4FBEB25E02406F582CC
:1004D800E43401F583E493F4F580EB25E02407F593
:0B04E80082E4340112051A0BBB40DE59
:0104F30022E6
:1004F400D288D2A8D2AFE4F508D2B720B70C7F10C7
:100504007E27120525050A30B7FDE50AD39403407A
:06051400EAE4F50A80E5AF
:100312000204F4E493A3F8E493A34003F68001F209
:1003220008DFF48029E493A3F85407240CC8C333EC
:10033200C4540F4420C8834004F456800146F6DFBB
:10034200E4800B0102040810204080900543E47E03
:10035200019360BCA3FF543F30E509541FFEE493B0
:10036200A360010ECF54C025E060A840B8E493A377
:10037200FAE493A3F8E493A3C8C582C8CAC583CAA2
:10038200F0A3C8C582C8CAC583CADFE9DEE780BE5A
:0105490000B1
:0C053700A42582F582E5F03583F58322CF
:00000001FF
