:0300000002028673
:0C028600787FE4F6D8FD75810B0202CDF4
:1000060000000000000000000000000000000000EA
:100016000000000000000000FE3F0020002000203D
:100026000020002000200020000000000000F80F43
:10003600041002200220022002200410F80F000003
:1000460000000000FE07000800100020002000103D
:100056000008FE07000000000000FE3F822082200C
:100066008220822082208220822000000000000060
:10007600000000000000000000000000000000007A
:10008600000000000000000000000000000000006A
:10009600000000000000000000000000000000005A
:1000A600000000000000000000000000000000004A
:1000B6007800FC00FE01FE03FE07FE0FFE1FFC3F5C
:1000C600F87FFC3FFE1FFE0FFE07FE03FE01FC004D
:1000D60078000000000000000000000000000000A2
:1000E600000000000000000000000000000000000A
:1000F60000000000000000000000000000000000FA
:1001060000000000000000000000000000000000E9
:10011600000000000000C0014001C0010000000016
:10012600F00F0810042000000000F03F0800040053
:10013600040004000800F03F00000000002000203A
:1001460000200020002000000000F03F080004000E
:10015600040004000800F03F00000000042008101E
:10016600F00F00000000C0014001C00100000000C7
:100176000000000000000000000000000000000079
:1001860040084408440444044402443E7F49C448A9
:10019600C4444444644254424E404470400000000B
:1001A6000040FC270010000EFF010000F20F1200B5
:1001B60012001200FEFF120012041208F2070000DD
:1001C60010801043F0221F14100CF0738020820060
:1001D60082408280F27F8A008600820080000000D2
:1001E600000000000000F05F0000000000000000BA
:1001F60000000000000000000000000000000000F9
:1002060020223023AC226312101240002000507EC0
:100216004C42434244424842307E60002000000087
:100226000000800080004000200010000C00E37FEA
:1002360004000800100020006000C000400000001C
:10024600100861F80607E0000400A4FFA408EF0701
:10025600A414A408E407AF44A488A47F24000000E3
:1002660080004080204098208710820F8000800008
:1002760083208440983F30006000C00040000000AA
:0604BE00010A00010B0021
:0B049500F583E493F4F5A07F787E006F
:1004A000E4FDFCD3ED9FEC9E50070DBD00010C80D8
:0104B000F259
:0104B1002228
:0300030002038372
:10038300C0E0C0F0C083C082C0D075D000C000C040
:1003930001C002C003C004C005C006C0076308FF54
:1003A300E5087023050BE50A14600A14600C146059
:1003B3000E2403800F1203E5800D12041C80081223
:1003C30004488003120312D007D006D005D004D00E
:1003D30003D002D001D000D0D0D082D083D0F0D0CF
:0203E300E03206
:10031200E50BD3940A40050509E4F50BE509D394EE
:10032200014003E4F5097F507E141204A0E4FB753A
:10033200F002EBA4F58285F08375F080E5091204E2
:10034200B2E5822486F582E5833401F583E493F4F1
:10035200F58075F002EBA4F58285F08375F080E5F7
:10036200091204B2E5822487F582E5833401F5831C
:10037200E493F4F5A07F647E001204A00BBB40AFAF
:010382002258
:1003E5007FA07E0F1204A0E4FBEB25E02406F58236
:1003F500E43400F583E493F4F580EB25E02407F578
:1004050082E43400F583E493F4F5A07F8C7E00123A
:0604150004A00BBB40D364
:01041B0022BE
:10041C007FA07E0F1204A0E4FBEB25E02486F5827E
:10042C00E43400F583E493F4F580EB25E02487F5C0
:0B043C0082E434001204950BBB40DE8C
:010447002292
:100448007FA07E0F1204A0E4FBEB25E02406F582D2
:10045800E43401F583E493F4F580EB25E02407F513
:0B04680082E434011204950BBB40DE5F
:010473002266
:10047400D288D2A8D2AFE4F50820B7097F107E272E
:100484001204A0050AE50AD3940340EDE4F50A80BA
:01049400E87F
:10029200020474E493A3F8E493A34003F68001F20A
:1002A20008DFF48029E493A3F85407240CC8C3336D
:1002B200C4540F4420C8834004F456800146F6DF3C
:1002C200E4800B01020408102040809004BEE47E0A
:1002D200019360BCA3FF543F30E509541FFEE49331
:1002E200A360010ECF54C025E060A840B8E493A3F8
:1002F200FAE493A3F8E493A3C8C582C8CAC583CA23
:10030200F0A3C8C582C8CAC583CADFE9DEE780BEDA
:0104C4000037
:0C04B200A42582F582E5F03583F5832255
:00000001FF
