:03000000020306F2
:0C030600787FE4F6D8FD75810B02034DF2
:1000060000000000000000000000000000000000EA
:100016000000000000000000FE3F0020002000203D
:100026000020002000200020000000000000F80F43
:10003600041002200220022002200410F80F000003
:1000460000000000FE07000800100020002000103D
:100056000008FE07000000000000FE3F822082200C
:100066008220822082208220822000000000000060
:10007600000000000000000000000000000000007A
:10008600000000000000000000000000000000006A
:10009600000000000000000000000000000000005A
:1000A600000000000000000000000000000000004A
:1000B6007800FC00FE01FE03FE07FE0FFE1FFC3F5C
:1000C600F87FFC3FFE1FFE0FFE07FE03FE01FC004D
:1000D60078000000000000000000000000000000A2
:1000E600000000000000000000000000000000000A
:1000F60000000000000000000000000000000000FA
:1001060000000000000000000000000000000000E9
:10011600000000000000C0014001C0010000000016
:10012600F00F0810042000000000F03F0800040053
:10013600040004000800F03F00000000002000203A
:1001460000200020002000000000F03F080004000E
:10015600040004000800F03F00000000042008101E
:10016600F00F00000000C0014001C00100000000C7
:100176000000000000000000000000000000000079
:1001860004103408C4060401C4823C8C204010309C
:100196000F0CE803080C0810286018C00040000087
:1001A600400042404420C81F0020FC470442024150
:1001B6008240FC7F044004420444FE6304200000A5
:1001C60040002000F8FF07000480F443144514297A
:1001D6001419FF17142114211441F6C3044000001A
:1001E60000800060FE1F2202220222022202FE7FFF
:1001F6002202220222422282FF7F02000000000029
:10020600080188004900EEFF580088000000F81F2A
:1002160088088808FFFF88088808FC1F0800000077
:10022600400040004400443E641254124C124712EF
:100236004C3F54427480C67F44006000400000007A
:1002460000400030FE8F4A80AA5F9A4AFE2AAA1A08
:10025600CB0FAA7AFE8A9AAAAA8F6B8022E00000A8
:100266008020C030A028982487228021C4300460D2
:1002760004000420044004800440FE3F0400000003
:10028600100210421081FF7F90045405CCF4B44450
:100296008444BC7F8244A2449BF48206000400008E
:1002A600100210421081FF7F90045405CCF4B44430
:1002B6008444BC7F8244A2449BF48206000400006E
:1002C60010041003D000FFFF900054054412D4150B
:1002D60074145FFFD41454155612440640020000ED
:1002E6000000000000000000000000007C10FE3B43
:1002F600FE3B7C1000000000000000000000000033
:06054300010A00010B009B
:0B051A00F583E493F4F5A07F787E00E9
:10052500E4FDFCD3ED9FEC9E50070DBD00010C8052
:01053500F2D3
:0105360022A2
:03000300020403F1
:10040300C0E0C0F0C083C082C0D075D000C000C0BF
:1004130001C002C003C004C005C006C0076308FFD3
:10042300E5087023050BE50A14600A14600C1460D8
:100433000E2403800F120465800D12049C800812A1
:1004430004C88003120392D007D006D005D004D08D
:1004530003D002D001D000D0D0D082D083D0F0D04E
:02046300E03285
:10039200E50BD3940A40050509E4F50BE509D3946E
:1003A200024003E4F5097F507E14120525E4FB7533
:1003B200F002EBA4F58285F08375F080E509120561
:1003C20037E5822486F582E5833401F583E493F4EC
:1003D200F58075F002EBA4F58285F08375F080E577
:1003E20009120537E5822487F582E5833401F58316
:1003F200E493F4F5A07F647E001205250BBB40AFA9
:0104020022D7
:100465007FA07E0F120525E4FBEB25E02406F5822F
:10047500E43400F583E493F4F580EB25E02407F5F7
:1004850082E43400F583E493F4F5A07F8C7E0012BA
:0604950005250BBB40D35E
:01049B00223E
:10049C007FA07E0F120525E4FBEB25E02486F58278
:1004AC00E43400F583E493F4F580EB25E02487F540
:0B04BC0082E4340012051A0BBB40DE86
:0104C7002212
:1004C8007FA07E0F120525E4FBEB25E02406F582CC
:1004D800E43401F583E493F4F580EB25E02407F593
:0B04E80082E4340112051A0BBB40DE59
:0104F30022E6
:1004F400D288D2A8D2AFE4F508D2B720B70C7F10C7
:100504007E27120525050A30B7FDE50AD39403407A
:06051400EAE4F50A80E5AF
:100312000204F4E493A3F8E493A34003F68001F209
:1003220008DFF48029E493A3F85407240CC8C333EC
:10033200C4540F4420C8834004F456800146F6DFBB
:10034200E4800B0102040810204080900543E47E03
:10035200019360BCA3FF543F30E509541FFEE493B0
:10036200A360010ECF54C025E060A840B8E493A377
:10037200FAE493A3F8E493A3C8C582C8CAC583CAA2
:10038200F0A3C8C582C8CAC583CADFE9DEE780BE5A
:0105490000B1
:0C053700A42582F582E5F03583F58322CF
:00000001FF
